:020000040800F2
:1000000000000220590D0008B10A0008B70A0008D4
:10001000BD0A0008C30A0008C90A00080000000061
:10002000000000000000000000000000CF0A0008EF
:10003000DD0A000800000000EB0A0008F90A0008C9
:10004000A90D0008A90D0008A90D0008A90D0008B8
:10005000A90D0008A90D0008A90D0008A90D0008A8
:10006000A90D0008A90D0008A90D0008A90D000898
:10007000A90D0008A90D0008A90D0008A90D000888
:10008000A90D0008A90D0008A90D0008A90D000878
:10009000A90D0008A90D0008A90D0008A90D000868
:1000A000A90D0008A90D0008A90D0008A90D000858
:1000B000A90D0008050B0008A90D0008A90D0008EE
:1000C000A90D0008A90D0008A90D0008A90D000838
:1000D000A90D0008A90D0008A90D0008A90D000828
:1000E000A90D0008A90D0008A90D0008A90D000818
:1000F000A90D0008A90D0008A90D0008A90D000808
:10010000A90D0008A90D0008A90D0008A90D0008F7
:10011000A90D0008A90D0008A90D0008A90D0008E7
:10012000A90D0008A90D0008A90D0008A90D0008D7
:10013000A90D00080000000000000000A90D000843
:10014000A90D0008A90D0008A90D0008A90D0008B7
:10015000A90D0008A90D0008A90D0008A90D0008A7
:10016000A90D0008A90D0008A90D0008A90D000897
:10017000A90D0008A90D0008A90D00080000000045
:1001800000000000A90D00080000000000000000B1
:10019000A90D00080000000000000000A90D0008E3
:1001A000000000000000000000000000A90D000891
:1001B000A90D0008A90D0008A90D0008A90D000847
:0401C000A90D00087D
:1001C40010B5054C237833B9044B13B10448AFF38D
:1001D40000800123237010BD0C00002000000000EB
:1001E400B84F000808B5034B1BB103490348AFF3EC
:1001F400008008BD0000000010000020B84F000877
:1002040053B94AB9002908BF00281CBF4FF0FF3179
:100214004FF0FF3000F074B9ADF1080C6DE904CE75
:1002240000F006F8DDF804E0DDE9022304B07047CD
:100234002DE9F047089D04468E46002B4DD18A4295
:10024400944669D9B2FA82F252B101FA02F3C2F1C8
:10025400200120FA01F10CFA02FC41EA030E944059
:100264004FEA1C48210CBEFBF8F61FFA8CF708FB7A
:1002740016E341EA034306FB07F199420AD91CEB52
:10028400030306F1FF3080F01F81994240F21C8184
:10029400023E63445B1AA4B2B3FBF8F008FB1033CC
:1002A40044EA034400FB07F7A7420AD91CEB040401
:1002B40000F1FF3380F00A81A74240F207816444D1
:1002C400023840EA0640E41B00261DB1D440002356
:1002D400C5E900433146BDE8F0878B4209D9002DBA
:1002E40000F0EF800026C5E9000130463146BDE844
:1002F400F087B3FA83F6002E4AD18B4202D38242AE
:1003040000F2F980841A61EB030301209E46002D5C
:10031400E0D0C5E9004EDDE702B9FFDEB2FA82F2B1
:10032400002A40F09280A1EB0C014FEA1C471FFA0F
:100334008CFE0126200CB1FBF7F307FB131140EAF6
:1003440001410EFB03F0884208D91CEB010103F1C3
:10035400FF3802D2884200F2CB804346091AA4B285
:10036400B1FBF7F007FB101144EA01440EFB00FE59
:10037400A64508D91CEB040400F1FF3102D2A645BE
:1003840000F2BB800846A4EB0E0440EA03409CE75D
:10039400C6F12007B34022FA07FC4CEA030C20FA0A
:1003A40007F401FA06F31C43F9404FEA1C4900FA2A
:1003B40006F3B1FBF9F8200C1FFA8CFE09FB1811A7
:1003C40040EA014108FB0EF0884202FA06F20BD91A
:1003D4001CEB010108F1FF3A80F08880884240F26A
:1003E4008580A8F102086144091AA4B2B1FBF9F0AE
:1003F40009FB101144EA014100FB0EFE8E4508D9A9
:100404001CEB010100F1FF346CD28E456AD902382D
:10041400614440EA0840A0FB0294A1EB0E01A14212
:10042400C846A64656D353D05DB1B3EB080261EB80
:100434000E0101FA07F722FA06F3F1401F43C5E95A
:10044400007100263146BDE8F087C2F12003D84090
:100454000CFA02FC21FA03F3914001434FEA1C47D2
:100464001FFA8CFEB3FBF7F007FB10360B0C43EAC4
:10047400064300FB0EF69E4204FA02F408D91CEB74
:10048400030300F1FF382FD29E422DD90238634472
:100494009B1B89B2B3FBF7F607FB163341EA034112
:1004A40006FB0EF38B4208D91CEB010106F1FF3861
:1004B40016D28B4214D9023E6144C91A46EA004658
:1004C40038E72E46284605E70646E3E61846F8E6EA
:1004D4004B45A9D2B9EB020864EB0C0E0138A3E733
:1004E4004646EAE7204694E74046D1E7D0467BE714
:1004F400023B614432E7304609E76444023842E78C
:10050400704700BF80B58AB000AF07F11403002222
:100514001A605A609A60DA601A6100233B61614B89
:100524001B6B604A43F0040313635E4B1B6B03F0C5
:1005340004033B613B690023FB605A4B1B6B594A24
:1005440043F080031363574B1B6B03F08003FB6082
:10055400FB680023BB60534B1B6B524A43F00103FF
:100564001363504B1B6B03F00103BB60BB68002398
:100574007B604C4B1B6B4B4A43F002031363494BA8
:100584001B6B03F002037B607B6800233B60454BDD
:100594001B6B444A43F008031363424B1B6B03F089
:1005A40008033B603B68002220213F4801F01CF90E
:1005B40000224FF480713D4801F016F94FF40053C6
:1005C4007B614FF40413BB610023FB6107F1140347
:1005D4001946364800F0BEFD41F6FF637B610323F4
:1005E400BB610023FB6107F1140319462F4800F097
:1005F400B1FD49F6D3637B610323BB610023FB6137
:1006040007F114031946284800F0A4FD20237B6158
:100614000123BB610023FB6100233B6207F1140348
:100624001946214800F096FD4FF2F7737B610323CE
:10063400BB610023FB6107F1140319461C4800F059
:1006440089FD4FF480737B610123BB610023FB614F
:1006540000233B6207F114031946144800F07AFDA5
:100664004FF480737B610223BB610023FB6103238E
:100674003B6200237B6207F1140319460A4800F029
:1006840069FD04237B610323BB610023FB6107F144
:1006940014031946074800F05DFD00BF2837BD4626
:1006A40080BD00BF00380240000002400008024044
:1006B40000040240000C024080B582B000AF00F09C
:1006C40073FB00F087F8FFF71DFF00F0D1FA00F08C
:1006D40033FA394B1B68002B02D0012B1ED069E082
:1006E400364802F00DFA0346002B62D14FF4005154
:1006F400334801F053F80346002B14BF01230023B1
:10070400DAB2304B1A70304B00221A7008212B4891
:1007140002F0AEFB284B01221A604AE02A4B1B78F8
:10072400DBB2022B3DD0022B3FDC002B01D0012B8E
:100734003EE04FF40051224801F030F80346002B0C
:1007440014BF01230023FB711E4B1B78FA799A42D4
:100754002DD0642000F09AFBFB7983F00103DBB217
:10076400002B1AD04FF40051154801F017F8034636
:10077400002B12D1154BAA221A60144B55225A6031
:10078400134B0C221A600D4B1B685A6A0B4B1B68E7
:100794006432DA630C4B01221A700A4AFB79137033
:1007A40005E0094B00221A7002E000BF02E000BF1E
:1007B40000E000BF8DE700BF600000206C00002057
:1007C40000080240640000205C0000202800002093
:1007D4005800002080B594B000AF07F11C03342208
:1007E4000021184604F0DEFB07F1080300221A601A
:1007F4005A609A60DA601A6100237B602F4B1B6C8D
:100804002E4A43F0805313642C4B1B6C03F080532B
:100814007B607B6800233B60294B1B68284A43F4B8
:1008240040431360264B1B6803F440433B603B6822
:100834000223FB610123BB621023FB6202237B635F
:100844000023BB630823FB63B4233B6402237B6460
:100854000223BB640223FB6407F11C03184601F066
:1008640003FD0346002B01D000F0E8F800F0EEFF92
:100874000346002B01D000F0E1F80F23BB600223F4
:10088400FB6000233B614FF4A0537B614FF4805322
:10089400BB6107F108030521184601F027F8034658
:1008A400002B01D000F0CAF84FF080620021002034
:1008B40001F0C2F900BF5037BD4680BD0038024088
:1008C4000070004080B584B000AF78607B68544A03
:1008D400934240F0A080534B1B78DBB2012B40F0D5
:1008E4009A800023FB817B681B685B6A7B81002301
:1008F4007B7200233B7200237B734B4B1B78042BCE
:100904006DD801A252F823F0210900083D0900081E
:10091400550900087F090008CB0900086423FB81FE
:1009240001237B73414B00221A603F4B1B78013338
:10093400DAB23D4B1A7056E04FF47A73FB81002310
:100944007B73394B1B780133DAB2374B1A704AE0A8
:100954006423FB8101237B73344B1A68344B1B687B
:100964009A4201D1022300E00123DAB22E4B1B7814
:100974001344DAB22C4B1A7035E02C4B1B68DB089D
:100984007B722A4B1B68DBB203F007033B723B7A92
:10099400012202FA03F319467B7A264A52F82330DD
:1009A4000B40002B02D04FF4C87300E0C823FB8136
:1009B40000237B731D4B1B6801331C4A13601A4BC5
:1009C40002221A700FE04FF47A73FB8100237B73C9
:1009D400154B1B780133DAB2134B1A7003E0114B39
:1009E40002221A7000BF0F4B1B78DBB2022B05D119
:1009F40000237B730C4B00221A7005E07A89FB8973
:100A04001A447B681B68DA637B7B1A464FF4807157
:100A1400094800F0E9FE00BF1037BD4680BD00BFA5
:100A24006C0000205C0000206500002068000020AD
:100A340058000020280000200008024080B400AFC5
:100A440072B600BFFEE780B483B000AF786039604F
:100A540000BF0C37BD465DF8047B704780B582B09B
:100A640000AF00237B60104B5B6C0F4A43F4804360
:100A740053640D4B5B6C03F480437B607B68002301
:100A84003B60094B1B6C084A43F080531364064BCC
:100A94001B6C03F080533B603B68072000F0EAFACC
:100AA40000BF0837BD4680BD0038024080B400AFA7
:100AB400FEE780B400AFFEE780B400AFFEE780B489
:100AC40000AFFEE780B400AFFEE780B400AF00BF24
:100AD400BD465DF8047B704780B400AF00BFBD46DF
:100AE4005DF8047B704780B400AF00BFBD465DF87D
:100AF400047B704780B500AF00F0A8F900BF80BD4B
:100B040080B500AF024802F089FB00BF80BD00BF82
:100B14006C00002080B400AF064BD3F88830054A3F
:100B240043F47003C2F8883000BFBD465DF8047B0F
:100B3400704700BF00ED00E080B58EB000AF07F154
:100B4400280300221A605A609A60DA6007F12003D1
:100B540000221A605A603B1D00221A605A609A6093
:100B6400DA601A615A619A612B4B2C4A1A602A4B3B
:100B74004FF4E1625A60284B00229A60264B4FF6EC
:100B8400FF72DA60244B00221A61234B00229A611F
:100B9400214801F0C5FE0346002B01D0FFF74EFFAC
:100BA4004FF48053BB6207F1280319461A4802F038
:100BB400AFFD0346002B01D0FFF740FF164802F0BB
:100BC4005DF80346002B01D0FFF738FF00233B629A
:100BD40000237B6207F1200319460F4803F038FD18
:100BE4000346002B01D0FFF729FF00237B6000237D
:100BF400BB600023FB6000237B613B1D0822194678
:100C0400054802F013FC0346002B01D0FFF716FF42
:100C140000BF3837BD4680BD6C0000200004004092
:100C240080B584B000AF78607B681B680E4A93423D
:100C340015D10023FB600D4B1B6C0C4A43F00203DF
:100C440013640A4B1B6C03F00203FB60FB68002275
:100C540000211D2000F02EFA1D2000F057FA00BFDD
:100C64001037BD4680BD00BF00040040003802407C
:100C740080B500AF114B124A1A60104B4FF4E132A9
:100C84005A600E4B00229A600C4B0022DA600B4B28
:100C940000221A61094B0C225A61084B00229A6106
:100CA400064B0022DA61054803F0C4FD0346002B1D
:100CB40001D0FFF7C3FE00BF80BD00BFB400002019
:100CC4000044004080B58AB000AF786007F1140397
:100CD40000221A605A609A60DA601A617B681B68A5
:100CE400194A93422BD100233B61184B1B6C174AC2
:100CF40043F400331364154B1B6C03F400333B6162
:100D04003B690023FB60114B1B6B104A43F001034A
:100D140013630E4B1B6B03F00103FB60FB680C2396
:100D24007B610223BB610023FB6103233B62072336
:100D34007B6207F114031946054800F00BFA00BF63
:100D44002837BD4680BD00BF004400400038024043
:100D540000000240DFF834D00D480E490E4A00234B
:100D640002E0D458C4500433C4188C42F9D30B4A5B
:100D74000B4C002301E013600432A242FBD3FFF7C3
:100D8400C9FE04F0EBF8FFF797FC7047000002205F
:100D9400000000200C000020945100080C000020EA
:100DA400FC000020FEE7000080B500AF0E4B1B687E
:100DB4000D4A43F4007313600B4B1B680A4A43F457
:100DC40080631360084B1B68074A43F48073136005
:100DD400032000F04FF9002000F008F8FFF73EFE72
:100DE4000023184680BD00BF003C024080B582B09D
:100DF40000AF7860124B1A68124B1B7819464FF4F7
:100E04007A73B3FBF1F3B2FBF3F3184600F096F9EF
:100E14000346002B01D001230EE07B680F2B0AD878
:100E2400002279684FF0FF3000F044F9064A7B68ED
:100E34001360002300E0012318460837BD4680BD37
:100E440000000020080000200400002080B400AF4F
:100E5400064B1B781A46064B1B681344044A13605E
:100E640000BFBD465DF8047B704700BF080000204A
:100E7400F800002080B400AF034B1B681846BD4641
:100E84005DF8047B704700BFF800002080B584B093
:100E940000AF7860FFF7EEFFB8607B68FB60FB682B
:100EA400B3F1FF3F05D00A4B1B781A46FB68134485
:100EB400FB6000BFFFF7DEFF0246BB68D31AFA6887
:100EC4009A42F7D800BF00BF1037BD4680BD00BFAF
:100ED4000800002080B485B000AF78607B6803F020
:100EE4000703FB600C4BDB68BB60BA684FF6FF037B
:100EF4001340BB60FB681A02BB68134343F0BF6333
:100F040043F40033BB60044ABB68D36000BF1437AA
:100F1400BD465DF8047B704700ED00E080B400AF8F
:100F2400044BDB681B0A03F007031846BD465DF853
:100F3400047B704700ED00E080B483B000AF03464B
:100F4400FB7197F90730002B0BDBFB7903F01F02D1
:100F5400074997F907305B09012000FA02F241F8CA
:100F6400232000BF0C37BD465DF8047B704700BFEB
:100F740000E100E080B483B000AF03463960FB7148
:100F840097F90730002B0ADB3B68DAB20C4997F972
:100F940007301201D2B20B4483F800230AE03B6805
:100FA400DAB20849FB7903F00F03043B1201D2B211
:100FB4000B441A7600BF0C37BD465DF8047B7047BE
:100FC40000E100E000ED00E080B489B000AFF8601B
:100FD400B9607A60FB6803F00703FB61FB69C3F146
:100FE4000703042B28BF0423BB61FB690433062BCE
:100FF40002D9FB69033B00E000237B614FF0FF3221
:10100400BB6902FA03F3DA43BB681A407B699A406E
:101014004FF0FF317B6901FA03F3D9437B680B403E
:10102400134318462437BD465DF8047B704700001F
:1010340080B582B000AF78607B68013BB3F1807FFC
:1010440001D301230FE00A4A7B68013B53600F215F
:101054004FF0FF30FFF78EFF054B00229A60044BE0
:1010640007221A60002318460837BD4680BD00BF1A
:1010740010E000E080B582B000AF78607B68072B99
:101084000FD07B68062B0CD07B68052B09D07B68BE
:10109400042B06D07B68032B03D090210448FFF770
:1010A400D2FC7868FFF716FF00BF0837BD4680BD45
:1010B400D04F000880B586B000AF0346B9607A60AF
:1010C400FB7300237B617B680F2B03D9A8210E4897
:1010D400FFF7B9FCBB680F2B03D9A9210A48FFF716
:1010E400B2FCFFF71BFF78617A68B9687869FFF78B
:1010F4006BFF024697F90F3011461846FFF73AFF87
:1011040000BF1837BD4680BDD04F000880B582B0FF
:1011140000AF0346FB7197F90730002B03DABC21BB
:101124000548FFF790FC97F907301846FFF704FFCE
:1011340000BF0837BD4680BDD04F000880B582B0DF
:1011440000AF78607868FFF773FF034618460837E6
:10115400BD4680BD80B588B000AF7860396000239B
:101164007B6100233B610023BB617B68374A934268
:101174001FD07B68364A93421BD07B68354A934222
:1011840017D07B68344A934213D07B68334A934226
:101194000FD07B68324A93420BD07B68314A93422A
:1011A40007D07B68304A934203D0AC212F48FFF725
:1011B4004AFC3B681B689BB2002B05D03B681B684C
:1011C4001B0C1B04002B03D0AD212848FFF73BFC6C
:1011D4003B685B68002B35D03B685B68012B31D0E2
:1011E4003B685B68112B2DD03B685B68022B29D0D0
:1011F4003B685B68122B25D03B685B68B3F5881F9E
:1012040020D03B685B68B3F5041F1BD03B685B6868
:10121400B3F5441F16D03B685B68B3F5901F11D03B
:101224003B685B68B3F5081F0CD03B685B68B3F59B
:10123400481F07D03B685B68032B03D0AE210B48E3
:10124400FFF701FC0023FB6189E200BF00000240BC
:101254000004024000080240000C0240001002405A
:101264000014024000180240001C02400C50000808
:101274000122FB6902FA03F37B613B681B687A690C
:1012840013403B613A697B699A4240F065823B684E
:101294005B6803F00303012B05D03B685B6803F034
:1012A4000303022B44D13B68DB68002B0FD03B685F
:1012B400DB68012B0BD03B68DB68022B07D03B6853
:1012C400DB68032B03D0C0213148FFF7BCFB7B68EC
:1012D4009B68BB61FB695B00032202FA03F3DB43F7
:1012E400BA691340BB613B68DA68FB695B0002FAC8
:1012F40003F3BA691343BB617B68BA699A607B687C
:101304005B68BB610122FB6902FA03F3DB43BA6940
:101314001340BB613B685B681B0903F00102FB6976
:1013240002FA03F3BA691343BB617B68BA695A6072
:101334003B685B6803F00303032B2BD03B689B687B
:10134400002B0BD03B689B68012B07D03B689B6844
:10135400022B03D0D1210E48FFF775FB7B68DB68B5
:10136400BB61FB695B00032202FA03F3DB43BA6946
:101374001340BB613B689A68FB695B0002FA03F3A4
:10138400BA691343BB617B68BA69DA6002E000BFE3
:101394000C5000083B685B6803F00303022B40F029
:1013A4000C813B681B69002B00F0E3803B681B69E0
:1013B400092B00F0DE803B681B69002B00F0D9800C
:1013C4003B681B69002B00F0D4803B681B69002B31
:1013D40000F0CF803B681B69002B00F0CA803B689B
:1013E4001B69012B00F0C5803B681B69012B00F0D1
:1013F400C0803B681B69022B00F0BB803B681B6903
:10140400022B00F0B6803B681B69022B00F0B18010
:101414003B681B69032B00F0AC803B681B69042B01
:1014240000F0A7803B681B69042B00F0A2803B6896
:101434001B69042B00F09D803B681B69052B00F0A1
:1014440098803B681B69052B00F093803B681B69FF
:10145400092B00F08E803B681B69062B00F0898005
:101464003B681B69092B00F084803B681B69072BD0
:101474007FD03B681B69072B7BD03B681B69072B1C
:1014840077D03B681B69082B73D03B681B69082B1A
:101494006FD03B681B69082B6BD03B681B69092B19
:1014A40067D03B681B69092B63D03B681B690A2B17
:1014B4005FD03B681B690A2B5BD03B681B690B2B15
:1014C40057D03B681B690C2B53D03B681B690C2B12
:1014D4004FD03B681B690D2B4BD03B681B690F2B0E
:1014E40047D03B681B69052B43D03B681B690C2B19
:1014F4003FD03B681B69062B3BD03B681B69032B21
:1015040037D03B681B69042B33D03B681B69052B20
:101514002FD03B681B69062B2BD03B681B69062B1D
:1015240027D03B681B69072B23D03B681B69072B1B
:101534001FD03B681B69072B1BD03B681B69072B1B
:1015440017D03B681B69082B13D03B681B69082B19
:101554000FD03B681B69092B0BD03B681B690A2B16
:1015640007D03B681B690A2B03D0DE218048FFF7B4
:101574006AFAFB69DA087B68083253F82230BB61E7
:10158400FB6903F007039B000F2202FA03F3DB431A
:10159400BA691340BB613B681A69FB6903F007032E
:1015A4009B0002FA03F3BA691343BB61FB69DA08CF
:1015B4007B680832B96943F822107B681B68BB61F9
:1015C400FB695B00032202FA03F3DB43BA691340AD
:1015D400BB613B685B6803F00302FB695B0002FAD2
:1015E40003F3BA691343BB617B68BA691A603B6849
:1015F4005B6803F44033002B00F0AE800023FB60F3
:101604005C4B5B6C5B4A43F480435364594B5B6CA7
:1016140003F48043FB60FB68574AFB699B08023371
:1016240052F82330BB61FB6903F003039B000F22D4
:1016340002FA03F3DB43BA691340BB617B684F4A88
:10164400934225D07B684E4A93421FD07B684D4A13
:10165400934219D07B684C4A934213D07B684B4A1F
:1016640093420DD07B684A4A934207D07B68494A2B
:10167400934201D106230CE007230AE0052308E086
:10168400042306E0032304E0022302E0012300E034
:101694000023FA6902F0030292009340BA691343EB
:1016A400BB613549FB699B080233BA6941F82320C1
:1016B400394B9B68BB613B69DB43BA691340BB612F
:1016C4003B685B6803F48013002B03D0BA693B6961
:1016D4001343BB61304ABB6993602F4BDB68BB612A
:1016E4003B69DB43BA691340BB613B685B6803F445
:1016F4000013002B03D0BA693B691343BB61264A2C
:10170400BB69D360244B5B68BB613B69DB43BA694B
:101714001340BB613B685B6803F40033002B03D0C8
:10172400BA693B691343BB611B4ABB6953601A4BDB
:101734001B68BB613B69DB43BA691340BB613B680F
:101744005B6803F48033002B03D0BA693B6913430D
:10175400BB61114ABB691360FB690133FB61FB691F
:101764000F2B7FF685AD00BF00BF2037BD4680BD7F
:101774000C500008003802400038014000000240CC
:101784000004024000080240000C02400010024025
:101794000014024000180240003C014080B584B0AF
:1017A40000AF78600B467B807B88002B04D07B885D
:1017B4001B0C1B04002B04D04FF4BE710948FFF727
:1017C40042F97B681A697B881340002B02D00123FD
:1017D400FB7301E00023FB73FB7B18461037BD4607
:1017E40080BD00BF0C50000880B582B000AF7860A7
:1017F4000B467B8013467B707B88002B04D07B8850
:101804001B0C1B04002B04D040F29D110E48FFF763
:101814001AF97B78002B07D07B78012B04D04FF486
:10182400CF710948FFF70FF97B78002B03D07A8832
:101834007B689A6103E07B881A047B689A6100BF25
:101844000837BD4680BD00BF0C50000880B582B08B
:1018540000AF00237B6000233B60204B1B6C1F4ABE
:1018640043F0805313641D4B1B6C03F080533B60A7
:101874003B681B4B01221A60FFF7FCFA786009E011
:10188400FFF7F8FA02467B68D31AB3F57A7F01D9D9
:1018940003231FE0134B5B6803F48033B3F5803FED
:1018A400EED1114B01221A60FFF7E4FA786009E0E7
:1018B400FFF7E0FA02467B68D31AB3F57A7F01D9C1
:1018C400032307E0074B5B6803F40033B3F5003FE1
:1018D400EED1002318460837BD4680BD00380240CB
:1018E40040000E420070004044000E4280B584B0B7
:1018F40000AF786039607B68002B01D101238CE153
:101904007B681B68002B03D07B681B680F2B04D9F2
:1019140040F25A218748FFF796F83B68002B31D0F4
:101924003B68012B2ED03B68022B2BD03B68032B4A
:1019340028D03B68042B25D03B68052B22D03B687C
:10194400062B1FD03B68072B1CD03B68082B19D0F3
:101954003B68092B16D03B680A2B13D03B680B2B32
:1019640010D03B680C2B0DD03B680D2B0AD03B6884
:101974000E2B07D03B680F2B04D040F25B216D483F
:10198400FFF761F86C4B1B6803F00F033A689A4247
:101994000CD9694B3A68D2B21A70674B1B6803F0D2
:1019A4000F033A689A4201D0012336E17B681B6831
:1019B40003F00203002B49D07B681B6803F0040387
:1019C400002B05D05D4B9B685C4A43F4E053936065
:1019D4007B681B6803F00803002B05D0574B9B68FA
:1019E400564A43F4604393607B689B68002B24D081
:1019F4007B689B68802B20D07B689B68902B1CD0D5
:101A04007B689B68A02B18D07B689B68B02B14D094
:101A14007B689B68C02B10D07B689B68D02B0CD054
:101A24007B689B68E02B08D07B689B68F02B04D014
:101A340040F27E213F48FFF706F8404B9B6823F0B5
:101A4400F0027B689B683D4913438B607B681B688D
:101A540003F00103002B59D07B685B68002B10D086
:101A64007B685B68012B0CD07B685B68022B08D019
:101A74007B685B68032B04D040F285212D48FEF778
:101A8400E2FF7B685B68012B07D12C4B1B6803F4D6
:101A94000033002B19D10123BFE07B685B68022B64
:101AA40003D07B685B68032B07D1244B1B6803F0CE
:101AB4000073002B09D10123AFE0204B1B6803F016
:101AC4000203002B01D10123A7E01C4B9B6823F0E8
:101AD40003027B685B68194913438B60FFF7CAF9FB
:101AE400F8600AE0FFF7C6F90246FB68D31A41F230
:101AF4008832934201D903238FE0104B9B6803F093
:101B04000C027B685B689B009A42EBD10A4B1B6812
:101B140003F00F033A689A4212D2074B3A68D2B2E2
:101B24001A70054B1B6803F00F033A689A4207D0FA
:101B3400012372E048500008003C02400038024093
:101B44007B681B6803F00403002B25D07B68DB68EB
:101B5400002B18D07B68DB68B3F5805F13D07B68FB
:101B6400DB68B3F5A05F0ED07B68DB68B3F5C05FBC
:101B740009D07B68DB68B3F5E05F04D040F2C32191
:101B84002848FEF760FF284B9B6823F4E0527B68EB
:101B9400DB68254913438B607B681B6803F00803EB
:101BA400002B26D07B681B69002B18D07B681B692F
:101BB400B3F5805F13D07B681B69B3F5A05F0ED0CB
:101BC4007B681B69B3F5C05F09D07B681B69B3F5FB
:101BD400E05F04D040F2CA211248FEF734FF124BF2
:101BE4009B6823F460427B681B69DB000E49134346
:101BF4008B6000F009F902460B4B9B681B0903F04C
:101C04000F030A49CB5C22FA03F3094A1360094B18
:101C14001B681846FFF7EAF8002318461037BD463C
:101C240080BD00BF48500008003802406C510008D5
:101C3400000000200400002080B58CB000AFF860E4
:101C4400B9607A60FB68002B07D0FB68012B04D0D5
:101C540040F20B314E48FEF7F6FE7B68002B14D0A1
:101C64007B68B3F1806F10D07B68B3F1A06F0CD0A8
:101C74007B68B3F1C06F08D07B68B3F1E06F04D028
:101C84004FF443714248FEF7DEFEFB68002B3DD162
:101C9400BB68002B10D0BB68B3F5001F0CD0BB6829
:101CA400B3F5800F08D0BB68B3F5C00F04D04FF470
:101CB40044713748FEF7C7FE0023BB61354B1B6BED
:101CC400344A43F001031363324B1B6B03F00103EB
:101CD400BB61BB694FF48073FB6102233B62032346
:101CE400BB6200237B620023FB6207F11C031946DD
:101CF4002948FFF72FFA274B9B6823F0EC62B96859
:101D04007B680B43234913438B603DE0BB68002B86
:101D140010D0BB68B3F1804F0CD0BB68B3F1004F57
:101D240008D0BB68B3F1404F04D04FF44A7118484F
:101D3400FEF789FE00237B61164B1B6B154A43F0AB
:101D440004031363134B1B6B03F004037B617B6974
:101D54004FF40073FB6102233B620323BB62002345
:101D64007B620023FB6207F11C0319460B48FFF753
:101D7400F1F9084B9B6823F078427B68D900BB6873
:101D84000B43044913438B6000BF3037BD4680BD0D
:101D94004850000800380240000002400008024099
:101DA40080B400AF034B1B681846BD465DF8047B46
:101DB400704700BF0000002080B500AFFFF7F0FFC0
:101DC4000246054B9B689B0A03F007030349CB5C5F
:101DD40022FA03F3184680BD003802407C51000803
:101DE40080B500AFFFF7DCFF0246054B9B685B0B39
:101DF40003F007030349CB5C22FA03F3184680BDC2
:101E0400003802407C5100082DE9B04FAEB000AF5D
:101E14000023C7F8AC300023C7F8B4300023C7F858
:101E2400A8300023C7F8A4300023C7F8B030CB4B48
:101E34009B6803F00C030C2B00F2068201A252F8FB
:101E440023F000BF7D1E00084D2200084D2200082B
:101E54004D220008851E00084D2200084D2200086E
:101E64004D2200088D1E00084D2200084D22000856
:101E74004D2200087D200008B94BC7F8B030E7E1D7
:101E8400B84BC7F8B030E3E1B44B5B6803F03F03F1
:101E9400C7F8AC30B14B5B6803F48003002B71D0FE
:101EA400AE4B5B689B090022C7F89830C7F89C20AA
:101EB400D7F89830C3F30803C7F890300023C7F865
:101EC4009430D7E9244522462B464FF000004FF0CA
:101ED4000001590141EAD261500102460B462146F4
:101EE400511A3964294663EB01037B644FF0000205
:101EF4004FF00003D7E9108949468B01414643EA74
:101F0400916341468A014146511AB963494663EBDC
:101F14000103FB634FF000024FF00003D7E90E8981
:101F24004946CB00414643EA51734146CA00104634
:101F34001946034622469B183B632B460A4642EB4E
:101F440003037B634FF000024FF00003D7E90C4515
:101F540029464B02214643EAD15321464A02104600
:101F64001946D7F8AC300022C7F88830C7F88C205F
:101F7400D7E92223FEF744F902460B461346C7F875
:101F8400B43067E0754B5B689B090022C7F880306A
:101F9400C7F88420D7F88030C3F30803BB67002355
:101FA400FB67D7E91E4522462B464FF000004FF051
:101FB4000001590141EAD261500102460B46214613
:101FC400511AB962294663EB0103FB624FF0000228
:101FD4004FF00003D7E90A8949468B01414643EA99
:101FE400916341468A014146B2EB010A494663EBDB
:101FF400010B4FF000024FF000034FEACB0343EA1A
:102004005A734FEACA0292469B4623461AEB0303CD
:102014003B622B464BEB03037B624FF000024FF015
:102024000003D7E9084529468B02214643EA915328
:1020340021468A0210461946D7F8AC3000223B6785
:102044007A67D7E91C23FEF7DBF802460B461346F2
:10205400C7F8B430414B5B681B0C03F00303013336
:102064005B00C7F8A830D7F8B420D7F8A830B2FB83
:10207400F3F3C7F8B030EBE0384B5B6803F03F0391
:10208400C7F8AC30354B5B6803F48003002B6BD08E
:10209400324B5B689B090022BB66FA66BB6EC3F3D6
:1020A40008033B6600237B66D7E9184522462B4686
:1020B4004FF000004FF00001590141EAD261500194
:1020C40002460B462146511AB961294663EB0103C6
:1020D400FB614FF000024FF00003D7E906AB59460D
:1020E4008B01514643EA916351468A015146B2EB52
:1020F4000108594663EB01094FF000024FF0000359
:102104004FEAC90343EA58734FEAC8029046994616
:10211400234618EB03033B612B4649EB03037B6126
:102124004FF000024FF00003D7E9044529464B0263
:10213400214643EAD15321464A0210461946D7F8AC
:10214400AC300022BB65FA65D7E91623FEF758F8D0
:1021540002460B461346C7F8B43065E00038024027
:102164000024F40000127A003D4B5B689B090022B6
:1021740018461146C0F308033B6500237B65D7E985
:10218400148942464B464FF000004FF000015901BC
:1021940041EAD261500102460B464146511AB960E8
:1021A400494663EB0103FB604FF000024FF000036C
:1021B400D7E902AB59468B01514643EA9163514634
:1021C4008A015146541A594663EB01054FF0000247
:1021D4004FF00003EB0043EA5473E20014461D463B
:1021E4004346E3183B604B4645EB03037B604FF0EB
:1021F40000024FF00003D7E9004529468B0221462F
:1022040043EA915321468A0210461946D7F8AC3066
:102214000022BB64FA64D7E91223FDF7F1FF0246FA
:102224000B461346C7F8B4300D4B5B681B0F03F025
:102234000703C7F8A430D7F8B420D7F8A430B2FB0A
:10224400F3F3C7F8B03003E0064BC7F8B03000BF73
:10225400D7F8B0301846B837BD46BDE8B08F00BFD8
:10226400003802400024F40080B586B000AF7860E6
:102274007B68002B01D1012347E37B681B680F2B8C
:1022840004D94FF451619348FEF7DDFB7B681B686A
:1022940003F00103002B00F096807B685B68002B41
:1022A4000ED07B685B68B3F5803F09D07B685B68C0
:1022B400B3F5A02F04D040F615518648FEF7C3FBB2
:1022C400854B9B6803F00C03042B19D0824B9B684D
:1022D40003F00C03082B06D17F4B5B6803F48003E7
:1022E400B3F5800F0CD07C4B9B6803F00C030C2BD4
:1022F40012D1794B5B6803F48003B3F5800F0BD1E3
:10230400754B1B6803F40033002B5BD07B685B6860
:10231400002B57D10123F8E27B685B68B3F5803F5B
:1023240006D16D4B1B686C4A43F4803313601DE087
:102334007B685B68B3F5A02F0CD1674B1B68664ABA
:1023440043F480231360644B1B68634A43F4803373
:1023540013600BE0604B1B685F4A23F48033136007
:102364005D4B1B685C4A23F4802313607B685B68C5
:10237400002B13D0FEF77EFD386108E0FEF77AFDEE
:1023840002463B69D31A642B01D90323BDE2524BA5
:102394001B6803F40033002BF0D014E0FEF76AFD51
:1023A400386108E0FEF766FD02463B69D31A642BE8
:1023B40001D90323A9E2484B1B6803F40033002B23
:1023C400F0D100E000BF7B681B6803F00203002B20
:1023D40000F08C807B68DB68002B08D07B68DB68AE
:1023E400012B04D040F64D513A48FEF72CFB7B6894
:1023F4001B691F2B04D940F64E513648FEF723FBC8
:10240400354B9B6803F00C03002B17D0324B9B68B1
:1024140003F00C03082B05D12F4B5B6803F48003F6
:10242400002B0BD02C4B9B6803F00C030C2B1CD102
:10243400294B5B6803F48003002B16D1264B1B68E1
:1024440003F00203002B05D07B68DB68012B01D06D
:1024540001235AE2204B1B6823F0F8027B681B69B6
:10246400DB001D4913430B6040E07B68DB68002BF5
:1024740020D01A4B01221A60FEF7FCFC386108E0F8
:10248400FEF7F8FC02463B69D31A022B01D9032359
:102494003BE2114B1B6803F00203002BF0D00E4B00
:1024A4001B6823F0F8027B681B69DB000A491343AD
:1024B4000B601BE0094B00221A60FEF7DBFC38615D
:1024C4000EE0FEF7D7FC02463B69D31A022B07D96C
:1024D40003231AE2805000080038024000004742FB
:1024E400744B1B6803F00203002BEAD17B681B6862
:1024F40003F00803002B3DD07B685B69002B08D0F8
:102504007B685B69012B04D040F694516A48FEF75E
:102514009AFA7B685B69002B16D0684B01221A601B
:10252400FEF7A8FC386108E0FEF7A4FC02463B690C
:10253400D31A022B01D90323E7E15E4B5B6F03F04F
:102544000203002BF0D015E05C4B00221A60FEF76A
:1025540091FC386108E0FEF78DFC02463B69D31A12
:10256400022B01D90323D0E1524B5B6F03F002032A
:10257400002BF0D17B681B6803F00403002B00F0F0
:10258400B0800023FB757B689B68002B0CD07B68B4
:102594009B68012B08D07B689B68052B04D04FF403
:1025A4005C614548FEF74FFA424B1B6C03F08053C5
:1025B400002B0FD10023BB603E4B1B6C3D4A43F004
:1025C400805313643B4B1B6C03F08053BB60BB68AC
:1025D4000123FB753A4B1B6803F48073002B18D15D
:1025E400374B1B68364A43F480731360FEF742FC92
:1025F400386108E0FEF73EFC02463B69D31A022B21
:1026040001D9032381E12E4B1B6803F48073002B53
:10261400F0D07B689B68012B06D1264B1B6F254AA3
:1026240043F0010313671CE07B689B68052B0CD106
:10263400204B1B6F1F4A43F0040313671D4B1B6F92
:102644001C4A43F0010313670BE01A4B1B6F194A32
:1026540023F001031367174B1B6F164A23F004037F
:1026640013677B689B68002B15D0FEF703FC386169
:102674000AE0FEF7FFFB02463B69D31A41F28832B7
:10268400934201D9032340E10A4B1B6F03F0020379
:10269400002BEED01CE0FEF7EDFB386112E0FEF7F4
:1026A400E9FB02463B69D31A41F28832934209D9C5
:1026B40003232AE10038024080500008800E47427C
:1026C40000700040934B1B6F03F00203002BE6D114
:1026D400FB7D012B05D18F4B1B6C8E4A23F080535D
:1026E40013647B689B69002B0CD07B689B69012B6E
:1026F40008D07B689B69022B04D040F603618648AE
:10270400FEF7A1F97B689B69002B00F0FD80814BEB
:102714009B6803F00C03082B00F0B6807B689B6970
:10272400022B40F09A807B68DB69002B09D07B6820
:10273400DB69B3F5800F04D040F60C617648FEF7F0
:1027440082F97B681B6A3F2B04D940F60D617248FD
:10275400FEF779F97B685B6A312B04D97B685B6A85
:10276400B3F5D87F04D940F60E616B48FEF76BF9D8
:102774007B689B6A022B10D07B689B6A042B0CD06D
:102784007B689B6A062B08D07B689B6A082B04D065
:1027940040F60F616048FEF756F97B68DB6A012B4F
:1027A40003D97B68DB6A0F2B04D94FF461615A4863
:1027B400FEF749F97B681B6B012B03D97B681B6B04
:1027C400072B04D940F611615348FEF73CF9534BEB
:1027D40000221A60FEF74EFB386108E0FEF74AFB60
:1027E40002463B69D31A022B01D903238DE0494BDE
:1027F4001B6803F00073002BF0D17B68DA697B68F7
:102804001B6A1A437B685B6A9B011A437B689B6A59
:102814005B08013B1B041A437B68DB6A1B061A43F3
:102824007B681B6B1B073B4913434B603B4B0122EB
:102834001A60FEF71FFB386108E0FEF71BFB024637
:102844003B69D31A022B01D903235EE0314B1B6889
:1028540003F00073002BF0D056E0304B00221A60D6
:10286400FEF708FB386108E0FEF704FB02463B690B
:10287400D31A022B01D9032347E0264B1B6803F02C
:102884000073002BF0D13FE07B689B69012B01D1E1
:1028940001233AE01F4B5B68FB607B689B69012B5B
:1028A40030D0FB6803F480027B68DB699A4229D14B
:1028B400FB6803F03F027B681B6A9A4222D1FA68E4
:1028C40047F6C07313407A68526A9201934219D151
:1028D400FB6803F440327B689B6A5B08013B1B0482
:1028E4009A420FD1FB6803F070627B68DB6A1B06B7
:1028F4009A4207D1FB6803F0E0427B681B6B1B071D
:102904009A4201D0012300E0002318461837BD463F
:1029140080BD00BF0038024080500008600047427C
:1029240080B582B000AF78607B68002B01D10123B1
:10293400C5E07B681B68644A934245D07B681B688A
:10294400B3F1804F40D07B681B68604A93423BD010
:102954007B681B685E4A934236D07B681B685D4A7D
:10296400934231D07B681B685B4A93422CD07B68CE
:102974001B685A4A934227D07B681B68584A934283
:1029840022D07B681B68574A93421DD07B681B6822
:10299400554A934218D07B681B68544A934213D01B
:1029A4007B681B68524A93420ED07B681B68514A6D
:1029B400934209D07B681B684F4A934204D040F28B
:1029C40013114E48FEF73FF87B689B68002B14D028
:1029D4007B689B68102B10D07B689B68202B0CD0E5
:1029E4007B689B68402B08D07B689B68602B04D075
:1029F4004FF48A714148FEF726F87B681B69002B67
:102A04000ED07B681B69B3F5807F09D07B681B6996
:102A1400B3F5007F04D040F215113848FEF713F8DF
:102A24007B689B69002B08D07B689B69802B04D052
:102A34004FF48B713148FEF706F87B6893F83D300C
:102A4400DBB2002B06D17B68002283F83C20786837
:102A5400FEF7E6F87B68022283F83D207B681A685B
:102A64007B6804331946104601F0FAF97B680122A9
:102A740083F846207B68012283F83E207B6801228C
:102A840083F83F207B68012283F840207B68012281
:102A940083F841207B68012283F842207B6801226D
:102AA40083F843207B68012283F844207B68012259
:102AB40083F845207B68012283F83D2000231846D3
:102AC4000837BD4680BD00BF00000140000400403F
:102AD40000080040000C00400010004000140040BA
:102AE400000401400040014000440140004801400E
:102AF40000180040001C004000200040BC500008AA
:102B040080B584B000AF78607B681B684D4A9342FF
:102B140045D07B681B68B3F1804F40D07B681B684D
:102B2400494A93423BD07B681B68484A934236D05B
:102B34007B681B68464A934231D07B681B68454AD0
:102B440093422CD07B681B68434A934227D07B680E
:102B54001B68424A934222D07B681B68404A9342D6
:102B64001DD07B681B683F4A934218D07B681B6862
:102B74003D4A934213D07B681B683C4A93420ED073
:102B84007B681B683A4A934209D07B681B68394AC0
:102B9400934204D04FF4CA713748FDF754FF7B6861
:102BA40093F83D30DBB2012B01D0012346E07B6872
:102BB400022283F83D207B681B68224A934222D07C
:102BC4007B681B68B3F1804F1DD07B681B681E4A6D
:102BD400934218D07B681B681C4A934213D07B68CD
:102BE4001B681B4A93420ED07B681B681B4A9342A6
:102BF40009D07B681B681A4A934204D07B681B681F
:102C04001A4A934211D17B681B689B6803F007033F
:102C1400FB60FB68062B10D07B681B681A687B6816
:102C24001B6842F001021A6007E07B681B681A689F
:102C34007B681B6842F001021A60002318461037B3
:102C4400BD4680BD00000140000400400008004073
:102C5400000C00400010004000140040000401403B
:102C64000040014000440140004801400018004079
:102C7400001C004000200040BC50000880B582B019
:102C840000AF78607B68002B01D10123C5E07B682D
:102C94001B68644A934245D07B681B68B3F1804F3C
:102CA40040D07B681B68604A93423BD07B681B68BA
:102CB4005E4A934236D07B681B685D4A934231D0AA
:102CC4007B681B685B4A93422CD07B681B685A4A1A
:102CD400934227D07B681B68584A934222D07B6872
:102CE4001B68574A93421DD07B681B68554A934220
:102CF40018D07B681B68544A934213D07B681B68C6
:102D0400524A93420ED07B681B68514A934209D0C1
:102D14007B681B684F4A934204D040F292214E488C
:102D2400FDF791FE7B689B68002B14D07B689B6841
:102D3400102B10D07B689B68202B0CD07B689B6881
:102D4400402B08D07B689B68602B04D040F2932111
:102D54004148FDF778FE7B681B69002B0ED07B6829
:102D64001B69B3F5807F09D07B681B69B3F5007FCD
:102D740004D04FF425713848FDF765FE7B689B69E4
:102D8400002B08D07B689B69802B04D040F29521EE
:102D94003148FDF758FE7B6893F83D30DBB2002BD9
:102DA40006D17B68002283F83C20786800F056F84E
:102DB4007B68022283F83D207B681A687B680433B1
:102DC4001946104601F04CF87B68012283F846202E
:102DD4007B68012283F83E207B68012283F83F2030
:102DE4007B68012283F840207B68012283F841201C
:102DF4007B68012283F842207B68012283F8432008
:102E04007B68012283F844207B68012283F84520F3
:102E14007B68012283F83D20002318460837BD460D
:102E240080BD00BF000001400004004000080040D5
:102E3400000C004000100040001400400004014059
:102E44000040014000440140004801400018004097
:102E5400001C004000200040BC50000880B483B037
:102E640000AF786000BF0C37BD465DF8047B704747
:102E740080B584B000AF786039600023FB737B6851
:102E84001B68904A93420FD13B68002B00F09F804F
:102E94003B68042B00F09B803B68082B00F0978074
:102EA4003B680C2B00F093807B681B68B3F1804F68
:102EB4000ED13B68002B00F08A803B68042B00F0A5
:102EC40086803B68082B00F082803B680C2B7ED008
:102ED4007B681B687C4A93420BD13B68002B76D0FD
:102EE4003B68042B73D03B68082B70D03B680C2BD9
:102EF4006DD07B681B68754A93420BD13B68002BED
:102F040065D03B68042B62D03B68082B5FD03B68DC
:102F14000C2B5CD07B681B686D4A93420BD13B68D9
:102F2400002B54D03B68042B51D03B68082B4ED067
:102F34003B680C2B4BD07B681B68664A93420BD1D1
:102F44003B68002B43D03B68042B40D03B68082BE4
:102F54003DD03B680C2B3AD07B681B685E4A934299
:102F640005D13B68002B32D03B68042B2FD07B6803
:102F74001B685A4A934202D13B68002B27D07B68D6
:102F84001B68574A934202D13B68002B1FD07B68D1
:102F94001B68544A934205D13B68002B17D03B6809
:102FA400042B14D07B681B684F4A934202D13B68C0
:102FB400002B0CD07B681B684C4A934202D13B68BF
:102FC400002B04D040F272314948FDF73CFD3B68C8
:102FD400002B09D17B6893F83E30DBB2012B14BF80
:102FE40001230023DBB222E03B68042B09D17B6878
:102FF40093F83F30DBB2012B14BF01230023DBB273
:1030040015E03B68082B09D17B6893F84030DBB2AC
:10301400012B14BF01230023DBB208E07B6893F883
:103024004130DBB2012B14BF01230023DBB2002BA0
:1030340001D00123E0E03B68002B04D17B6802222D
:1030440083F83E2013E03B68042B04D17B68022202
:1030540083F83F200BE03B68082B04D17B680222F5
:1030640083F8402003E07B68022283F841203B6818
:103074000C2B5AD801A252F823F000BFB530000837
:103084002F3100082F3100082F310008F9300008D3
:103094002F3100082F3100082F3100080B310008B0
:1030A4002F3100082F3100082F3100081D3100088E
:1030B4007B681B68DA687B681B6842F00202DA608E
:1030C40036E000BF0000014000040040000800405A
:1030D400000C004000040140004001400044014055
:1030E4000048014000180040001C0040002000403F
:1030F400BC5000087B681B68DA687B681B6842F078
:103104000402DA6014E07B681B68DA687B681B6879
:1031140042F00802DA600BE07B681B68DA687B68BF
:103124001B6842F01002DA6002E00123FB7300BF67
:10313400FB7B002B5FD17B681B6801223968184632
:1031440001F002FA7B681B682D4A934204D07B6825
:103154001B682C4A934201D1012300E00023002B79
:1031640007D07B681B685A6C7B681B6842F400427A
:103174005A647B681B68224A934222D07B681B688E
:10318400B3F1804F1DD07B681B681F4A934218D04F
:103194007B681B681D4A934213D07B681B681C4ADA
:1031A40093420ED07B681B68164A934209D07B6811
:1031B4001B68184A934204D07B681B68164A9342E2
:1031C40011D17B681B689B6803F00703BB60BB6875
:1031D400062B10D07B681B681A687B681B6842F05A
:1031E40001021A6007E07B681B681A687B681B6829
:1031F40042F001021A60FB7B18461037BD4680BDC1
:1032040000000140000401400004004000080040A8
:10321400000C0040004001400018004080B582B01E
:1032240000AF78607B681B681B6903F00203022B04
:1032340022D17B681B68DB6803F00203022B1BD1DD
:103244007B681B686FF002021A617B6801221A779F
:103254007B681B689B6903F00303002B03D0786829
:1032640000F0E0FD05E07868FDF72CFB786800F0DD
:10327400E3FD7B6800221A777B681B681B6903F0F7
:103284000403042B22D17B681B68DB6803F004036E
:10329400042B1BD17B681B686FF004021A617B68E6
:1032A40002221A777B681B689B6903F44073002B26
:1032B40003D0786800F0B6FD05E07868FDF702FBFE
:1032C400786800F0B9FD7B6800221A777B681B6878
:1032D4001B6903F00803082B22D17B681B68DB6899
:1032E40003F00803082B1BD17B681B686FF00802EE
:1032F4001A617B6804221A777B681B68DB6903F018
:103304000303002B03D0786800F08CFD05E0786897
:10331400FDF7D8FA786800F08FFD7B6800221A77F1
:103324007B681B681B6903F01003102B22D17B6898
:103334001B68DB6803F01003102B1BD17B681B6830
:103344006FF010021A617B6808221A777B681B6889
:10335400DB6903F44073002B03D0786800F062FD4E
:1033640005E07868FDF7AEFA786800F065FD7B68E3
:1033740000221A777B681B681B6903F00103012B89
:103384000ED17B681B68DB6803F00103012B07D1B6
:103394007B681B686FF001021A61786800F038FDE1
:1033A4007B681B681B6903F08003802B0ED17B684C
:1033B4001B68DB6803F08003802B07D17B681B68E4
:1033C4006FF080021A61786801F02AFA7B681B6842
:1033D4001B6903F04003402B0ED17B681B68DB683C
:1033E40003F04003402B07D17B681B686FF0400259
:1033F4001A61786800F02AFD7B681B681B6903F07A
:103404002003202B0ED17B681B68DB6803F02003AC
:10341400202B07D17B681B686FF020021A61786843
:1034240001F0F4F900BF0837BD4680BD80B586B011
:1034340000AFF860B9607A600023FB757B68002BED
:1034440010D07B68042B0DD07B68082B0AD07B68D6
:103454000C2B07D07B683C2B04D040F6C5717F4809
:10346400FDF7F1FABB681B68002B18D0BB681B681A
:10347400102B14D0BB681B68202B10D0BB681B68B2
:10348400302B0CD0BB681B68502B08D0BB681B6862
:10349400402B04D040F6C6717048FDF7D4FABB68DF
:1034A4009B68002B08D0BB689B68022B04D040F6B5
:1034B400C7716A48FDF7C7FAFB6893F83C30012BE3
:1034C40001D1022314E1FB68012283F83C207B68CC
:1034D4000C2B00F2058101A252F823F015350008E7
:1034E400E5360008E5360008E5360008A53500088D
:1034F400E5360008E5360008E53600080D36000814
:10350400E5360008E5360008E5360008913600087F
:10351400FB681B68524A93423BD0FB681B68B3F1BB
:10352400804F36D0FB681B684E4A934231D0FB680B
:103534001B684D4A93422CD0FB681B684B4A93424C
:1035440027D0FB681B684A4A934222D0FB681B6859
:10355400484A93421DD0FB681B68474A934218D0DF
:10356400FB681B68454A934213D0FB681B68444AB6
:1035740093420ED0FB681B68424A934209D0FB6811
:103584001B68414A934204D040F6D1713348FDF799
:103594005AFAFB681B68B968184600F001FDA2E0FE
:1035A400FB681B682E4A934227D0FB681B68B3F163
:1035B400804F22D0FB681B682A4A93421DD0FB68C7
:1035C4001B68294A934218D0FB681B68274A934218
:1035D40013D0FB681B68264A93420ED0FB681B6815
:1035E400244A934209D0FB681B68254A934204D0BD
:1035F40040F6DB711948FDF726FAFB681B68B968C9
:10360400184600F067FD6EE0FB681B68144A93429D
:103614001DD0FB681B68B3F1804F18D0FB681B6892
:10362400104A934213D0FB681B680F4A93420ED092
:10363400FB681B680D4A934209D0FB681B680C4A5F
:10364400934204D040F6E5710448FDF7FCF9FB68A9
:103654001B68B968184600F0DBFD44E0BC50000864
:10366400000001400004004000080040000C00403D
:103674000004014000400140004401400048014072
:1036840000180040001C004000200040FB681B683C
:10369400194A93421DD0FB681B68B3F1804F18D0C0
:1036A400FB681B68154A934213D0FB681B68144AD5
:1036B40093420ED0FB681B68124A934209D0FB6800
:1036C4001B68114A934204D040F6EF710F48FDF78E
:1036D400BAF9FB681B68B968184600F037FE02E0C7
:1036E4000123FB7500BFFB68002283F83C20FB7DAF
:1036F40018461837BD4680BD000001400004004054
:1037040000080040000C004000040140BC500008C8
:1037140080B584B000AF786039600023FB737B68A8
:1037240093F83C30012B01D102235CE37B68012236
:1037340083F83C207B68022283F83D203B681B68A9
:10374400B3F5805F29D03B681B68702B25D03B689C
:103754001B68B3F5005F20D03B681B68402B1CD06E
:103764003B681B68502B18D03B681B68602B14D037
:103774003B681B68002B10D03B681B68102B0CD0D7
:103784003B681B68202B08D03B681B68302B04D097
:1037940041F2B7419348FDF756F97B681B689B6873
:1037A400BB60BB6823F07703BB60BB6823F47F4333
:1037B400BB607B681B68BA689A603B681B68B3F59A
:1037C400005F00F02B81B3F5005F00F2FF82B3F5D8
:1037D400805F2ED0B3F5805F00F2F882702B00F08A
:1037E4008280702B00F2F282602B00F0F981602B52
:1037F40000F2EC82502B00F08281502B00F2E68222
:10380400402B00F04D82402B00F2E082302B00F080
:10381400A782302B00F2DA82202B00F0A182202B29
:1038240000F2D482002B00F09B82102B00F09882CF
:10383400CCE27B681B686C4A934200F0CA827B68C6
:103844001B68B3F1804F00F0C4827B681B68674A31
:10385400934200F0BE827B681B68654A934200F085
:10386400B8827B681B68634A934200F0B2827B682B
:103874001B68614A934200F0AC827B681B685F4A14
:10388400934200F0A6827B681B685D4A934200F075
:10389400A0827B681B685B4A934200F09A827B6833
:1038A4001B68594A934200F094827B681B68574A0C
:1038B400934200F08E827B681B68554A934200F065
:1038C40088827B681B68534A934200F082827B683B
:1038D4001B68514A934200F07C8241F2C341414843
:1038E400FDF7B1F875E27B681B683F4A934227D025
:1038F4007B681B68B3F1804F22D07B681B683B4A0E
:1039040093421DD07B681B68394A934218D07B6868
:103914001B68384A934213D07B681B68384A934229
:103924000ED07B681B68374A934209D07B681B68BA
:10393400374A934204D041F2CA412A48FDF783F83A
:103944003B689B68002B13D03B689B68B3F5805F92
:103954000ED03B689B68B3F5005F09D03B689B6859
:10396400B3F5405F04D041F2CD411E48FDF76BF83A
:103974003B685B68B3F5004F14D03B685B68002B71
:1039840010D03B685B68002B0CD03B685B68022B53
:1039940008D03B685B680A2B04D041F2CE41114841
:1039A400FDF751F83B68DB680F2B04D941F2CF4196
:1039B4000C48FDF748F87B6818683B6899683B68D1
:1039C4005A683B68DB6800F09FFD7B681B689B6856
:1039D400BB60BB6843F07703BB607B681B68BA6855
:1039E4009A60F7E1BC500008000001400004004068
:1039F40000080040000C004000100040001400408B
:103A040000040140004001400044014000480140DE
:103A140000180040001C0040002000407B681B6828
:103A2400674A93421DD07B681B68B3F1804F18D05E
:103A34007B681B68634A934213D07B681B68624AA5
:103A440093420ED07B681B68604A934209D07B681E
:103A54001B685F4A934204D041F2E2415D48FCF79F
:103A6400F2FF3B689B68002B13D03B689B68B3F55F
:103A7400805F0ED03B689B68B3F5005F09D03B685C
:103A84009B68B3F5405F04D041F2E5415148FCF72F
:103A9400DAFF3B685B68B3F5004F14D03B685B68A2
:103AA400002B10D03B685B68002B0CD03B685B6834
:103AB400022B08D03B685B680A2B04D041F2E64134
:103AC4004448FCF7C0FF3B68DB680F2B04D941F284
:103AD400E7414048FCF7B7FF7B6818683B68996882
:103AE4003B685A683B68DB6800F00EFD7B681B6826
:103AF4009A687B681B6842F480429A606AE17B683A
:103B04001B682F4A934227D07B681B68B3F1804F10
:103B140022D07B681B682B4A93421DD07B681B68AC
:103B2400294A934218D07B681B68284A934213D0D1
:103B34007B681B68264A93420ED07B681B68264A22
:103B4400934209D07B681B68244A934204D041F213
:103B5400F6412048FCF777FF3B685B68B3F5004FFC
:103B640014D03B685B68002B10D03B685B68002B6B
:103B74000CD03B685B68022B08D03B685B680A2B5F
:103B840004D041F2F9411348FCF75DFF3B68DB6860
:103B94000F2B04D941F2FA410E48FCF754FF7B681D
:103BA40018683B6859683B68DB681A4600F032FCC9
:103BB4007B681B685021184600F08BFC0AE100BFAB
:103BC400000001400004004000080040000C0040D8
:103BD40000040140BC5000080040014000180040AF
:103BE4007B681B68824A934227D07B681B68B3F1C9
:103BF400804F22D07B681B687E4A93421DD07B682D
:103C04001B687D4A934218D07B681B687B4A9342A9
:103C140013D07B681B687A4A93420ED07B681B687A
:103C2400784A934209D07B681B68774A934204D050
:103C340041F206517548FCF706FF3B685B68B3F533
:103C4400004F14D03B685B68002B10D03B685B6866
:103C5400002B0CD03B685B68022B08D03B685B6888
:103C64000A2B04D041F209516848FCF7ECFE3B688A
:103C7400DB680F2B04D941F20A516448FCF7E3FED8
:103C84007B6818683B6859683B68DB681A4600F033
:103C9400F0FB7B681B686021184600F01AFC99E071
:103CA4007B681B68524A934227D07B681B68B3F138
:103CB400804F22D07B681B684E4A93421DD07B689C
:103CC4001B684D4A934218D07B681B684B4A934249
:103CD40013D07B681B684A4A93420ED07B681B68EA
:103CE400484A934209D07B681B68474A934204D0F0
:103CF40041F216514548FCF7A6FE3B685B68B3F5F4
:103D0400004F14D03B685B68002B10D03B685B68A5
:103D1400002B0CD03B685B68022B08D03B685B68C7
:103D24000A2B04D041F219513848FCF78CFE3B6849
:103D3400DB680F2B04D941F21A513448FCF783FE97
:103D44007B6818683B6859683B68DB681A4600F072
:103D540061FB7B681B684021184600F0BAFB39E020
:103D64007B681B68224A934227D07B681B68B3F1A7
:103D7400804F22D07B681B681E4A93421DD07B680B
:103D84001B681D4A934218D07B681B681B4A9342E8
:103D940013D07B681B681A4A93420ED07B681B6859
:103DA400184A934209D07B681B68174A934204D08F
:103DB40041F229511548FCF746FE7B681A683B68B6
:103DC4001B681946104600F084FB03E00123FB73D3
:103DD40000E000BF7B68012283F83D207B6800225D
:103DE40083F83C20FB7B18461037BD4680BD00BFDE
:103DF400000001400004004000080040000C0040A6
:103E0400000401400040014000180040BC5000087C
:103E140080B483B000AF786000BF0C37BD465DF856
:103E2400047B704780B483B000AF786000BF0C3768
:103E3400BD465DF8047B704780B483B000AF786002
:103E440000BF0C37BD465DF8047B704780B483B077
:103E540000AF786000BF0C37BD465DF8047B704747
:103E640080B485B000AF786039607B681B68FB6004
:103E74007B68404A934213D07B68B3F1804F0FD0E4
:103E84007B683D4A93420BD07B683C4A934207D0FF
:103E94007B683B4A934203D07B683A4A934208D1F9
:103EA400FB6823F07003FB603B685B68FA681343AC
:103EB400FB607B682F4A93422BD07B68B3F1804F21
:103EC40027D07B682C4A934223D07B682B4A9342A9
:103ED4001FD07B682A4A93421BD07B68294A9342AD
:103EE40017D07B68284A934213D07B68274A9342B1
:103EF4000FD07B68264A93420BD07B68254A9342B5
:103F040007D07B68244A934203D07B68234A9342B8
:103F140008D1FB6823F44073FB603B68DB68FA68F4
:103F24001343FB60FB6823F080023B685B69134327
:103F3400FB607B68FA681A603B689A687B68DA629F
:103F44003B681A687B689A627B680A4A934203D08A
:103F54007B680C4A934203D13B681A697B681A63F5
:103F64007B6801225A6100BF1437BD465DF8047BAB
:103F7400704700BF000001400004004000080040FA
:103F8400000C004000040140004001400044014096
:103F94000048014000180040001C00400020004080
:103FA40080B586B000AF786039607B681B6A23F007
:103FB40001027B681A627B681B6A7B617B685B68B1
:103FC4003B617B689B69FB60FB6823F07003FB60CB
:103FD400FB6823F00303FB603B681B68FA68134328
:103FE400FB607B6923F002037B613B689B687A6911
:103FF40013437B617B68344A934203D07B68334A22
:10400400934219D13B68DB68002B08D03B68DB681E
:10401400082B04D041F6C7212D48FCF714FD7B6919
:1040240023F008037B613B68DB687A6913437B6197
:104034007B6923F004037B617B68234A934203D0AA
:104044007B68224A93422DD13B689B69B3F5007F7C
:1040540008D03B689B69002B04D041F6D4211C484E
:10406400FCF7F1FC3B685B69B3F5807F08D03B68E3
:104074005B69002B04D041F6D5211548FCF7E3FC1D
:104084003B6923F480733B613B6923F400733B6118
:104094003B685B693A6913433B613B689B693A69D6
:1040A40013433B617B683A695A607B68FA689A619A
:1040B4003B685A687B685A637B687A691A6200BFF6
:1040C4001837BD4680BD00BF000001400004014018
:1040D400BC50000880B586B000AF786039607B685A
:1040E4001B6A23F010027B681A627B681B6A7B617F
:1040F4007B685B683B617B689B69FB60FB6823F4BE
:10410400E043FB60FB6823F44073FB603B681B687F
:104114001B02FA681343FB607B6923F020037B6175
:104124003B689B681B017A6913437B617B68354A52
:10413400934203D07B68344A93421AD13B68DB68CC
:10414400002B08D03B68DB68082B04D041F6123101
:104154002E48FCF778FC7B6923F080037B613B6885
:10416400DB681B017A6913437B617B6923F040039D
:104174007B617B68234A934203D07B68224A934243
:104184002FD13B689B69B3F5007F08D03B689B69DE
:10419400002B04D04FF4D9511C48FCF754FC3B6865
:1041A4005B69B3F5807F08D03B685B69002B04D062
:1041B40041F621311548FCF746FC3B6923F4806342
:1041C4003B613B6923F400633B613B685B699B0093
:1041D4003A6913433B613B689B699B003A6913430B
:1041E4003B617B683A695A607B68FA689A613B680C
:1041F4005A687B689A637B687A691A6200BF1837C9
:10420400BD4680BD0000014000040140BC500008D0
:1042140080B586B000AF786039607B681B6A23F490
:1042240080727B681A627B681B6A7B617B685B684F
:104234003B617B68DB69FB60FB6823F07003FB6018
:10424400FB6823F00303FB603B681B68FA681343B5
:10425400FB607B6923F400737B613B689B681B02F2
:104264007A6913437B617B68354A934203D07B6848
:10427400344A93421AD13B68DB68002B08D03B6870
:10428400DB68082B04D041F65D312F48FCF7DBFBDB
:104294007B6923F400637B613B68DB681B027A69FA
:1042A40013437B617B6923F480637B617B68244ACD
:1042B400934203D07B68234A93422FD13B689B6986
:1042C400B3F5007F08D03B689B69002B04D041F60E
:1042D4006A311D48FCF7B7FB3B685B69B3F5807F27
:1042E40008D03B685B69002B04D041F66B3116485B
:1042F400FCF7A9FB3B6923F480533B613B6923F43E
:1043040000533B613B685B691B013A6913433B61A2
:104314003B689B691B013A6913433B617B683A69BB
:104324005A607B68FA68DA613B685A687B68DA63CA
:104334007B687A691A6200BF1837BD4680BD00BF2A
:104344000000014000040140BC50000880B586B064
:1043540000AF786039607B681B6A23F480527B6805
:104364001A627B681B6A3B617B685B687B617B6864
:10437400DB69FB60FB6823F4E043FB60FB6823F428
:104384004073FB603B681B681B02FA681343FB60C5
:104394003B6923F400533B613B689B681B033A6908
:1043A40013433B617B68184A934203D07B68174AE6
:1043B400934217D13B685B69B3F5807F08D03B68B3
:1043C4005B69002B04D041F6A9311148FCF73BFB93
:1043D4007B6923F480437B613B685B699B017A6959
:1043E40013437B617B687A695A607B68FA68DA6197
:1043F4003B685A687B681A647B683A691A6200BF32
:104404001837BD4680BD00BF0000014000040140D4
:10441400BC50000880B487B000AFF860B9607A601F
:10442400FB681B6A7B61FB681B6A23F00102FB6863
:104434001A62FB689B693B613B6923F0F0033B61B3
:104444007B681B013A6913433B617B6923F00A03D0
:104454007B617A69BB6813437B61FB683A699A6143
:10446400FB687A691A6200BF1C37BD465DF8047B9D
:10447400704780B487B000AFF860B9607A60FB68B9
:104484001B6A23F01002FB681A62FB689B697B615C
:10449400FB681B6A3B617B6923F470437B617B6827
:1044A4001B037A6913437B613B6923F0A0033B61DF
:1044B400BB681B013A6913433B61FB687A699A61E3
:1044C400FB683A691A6200BF1C37BD465DF8047B7D
:1044D400704780B485B000AF786039607B689B68B2
:1044E400FB60FB6823F07003FB603A68FB681343CE
:1044F40043F00703FB607B68FA689A6000BF1437D7
:10450400BD465DF8047B704780B487B000AFF860A7
:10451400B9607A603B60FB689B687B617B6923F4CC
:104524007F437B613B681A027B681A43BB68134371
:104534007A6913437B61FB687A699A6000BF1C3710
:10454400BD465DF8047B704780B586B000AFF86067
:10455400B9607A60FB68324A934230D0FB68B3F1A9
:10456400804F2CD0FB682F4A934228D0FB682E4AF8
:10457400934224D0FB682D4A934220D0FB682C4AF6
:1045840093421CD0FB682B4A934218D0FB682A4AFA
:10459400934214D0FB68294A934210D0FB68284AFE
:1045A40093420CD0FB68274A934208D0FB68264A02
:1045B400934204D041F694512448FCF744FABB6872
:1045C400002B10D0BB68042B0DD0BB68082B0AD07D
:1045D400BB680C2B07D0BB683C2B04D041F695512B
:1045E4001A48FCF730FABB6803F01F03012202FAF1
:1045F40003F37B61FB681A6A7B69DB431A40FB683F
:104604001A62FB681A6ABB6803F01F03796801FA2F
:1046140003F31A43FB681A6200BF1837BD4680BD16
:10462400000001400004004000080040000C00406D
:1046340000040140004001400044014000480140A2
:1046440000180040001C004000200040BC5000083E
:1046540080B584B000AF786039607B681B68614ABC
:10466400934227D07B681B68B3F1804F22D07B68CC
:104674001B685D4A93421DD07B681B685B4A93426A
:1046840018D07B681B685A4A934213D07B681B6816
:10469400584A93420ED07B681B68574A934209D00C
:1046A4007B681B68554A934204D040F2B171544868
:1046B400FCF7C9F93B681B68002B20D03B681B68DA
:1046C400102B1CD03B681B68202B18D03B681B6840
:1046D400302B14D03B681B68402B10D03B681B6800
:1046E400502B0CD03B681B68602B08D03B681B68C0
:1046F400702B04D040F2B2714148FCF7A4F93B6836
:104704005B68802B08D03B685B68002B04D040F2C8
:10471400B3713B48FCF797F97B6893F83C30012B65
:1047240001D102235AE07B68012283F83C207B6894
:10473400022283F83D207B681B685B68FB607B6812
:104744001B689B68BB60FB6823F07003FB603B68DD
:104754001B68FA681343FB607B681B68FA685A603D
:104764007B681B681F4A934222D07B681B68B3F1A5
:10477400804F1DD07B681B681B4A934218D07B680E
:104784001B681A4A934213D07B681B68184A9342E9
:104794000ED07B681B68194A934209D07B681B685A
:1047A400184A934204D07B681B68174A93420CD181
:1047B400BB6823F08003BB603B685B68BA68134343
:1047C400BB607B681B68BA689A607B68012283F8C7
:1047D4003D207B68002283F83C20002318461037D4
:1047E400BD4680BD000001400004004000080040B8
:1047F400000C004000100040001400400004014080
:10480400F4500008004001400018004080B483B018
:1048140000AF786000BF0C37BD465DF8047B70477D
:1048240080B483B000AF786000BF0C37BD465DF83C
:10483400047B704780B582B000AF78607B68002B42
:1048440001D10123BEE07B689B69002B3BD07B68D0
:104854001B685E4A93421DD07B681B685C4A934286
:1048640018D07B681B685B4A934213D07B681B6833
:10487400594A93420ED07B681B68584A934209D028
:104884007B681B68564A934204D040F27311554822
:10489400FCF7D9F87B689B69002B37D07B689B6950
:1048A400B3F5807F32D07B689B69B3F5007F2DD050
:1048B4007B689B69B3F5407F28D04FF4BA714948AF
:1048C400FCF7C1F822E07B681B68404A93421DD084
:1048D4007B681B683E4A934218D07B681B683D4A3C
:1048E400934213D07B681B683B4A93420ED07B688B
:1048F4001B683A4A934209D07B681B68384A934242
:1049040004D04FF4BC713748FCF79DF87B689B6872
:10491400002B09D07B689B68B3F5805F04D04FF40B
:10492400BD713048FCF78FF87B68DB69002B09D038
:104934007B68DB69B3F5004F04D040F27B11294852
:10494400FCF781F87B6893F83D30DBB2002B06D18D
:104954007B68002283F83C207868FCF7B3F97B6815
:10496400242283F83D207B681B68DA687B681B6817
:1049740022F40052DA60786800F036F87B681B682D
:104984001A697B681B6822F490421A617B681B6871
:104994005A697B681B6822F02A025A617B681B688B
:1049A400DA687B681B6842F40052DA607B68002294
:1049B4001A647B68202283F83D207B68202283F8D8
:1049C4003E20002318460837BD4680BD0010014034
:1049D4000044004000480040004C004000500040AB
:1049E40000140140305100082DE9B04FC0B000AFB1
:1049F400C7F8F400D7F8F4305A68CF4B9A4204D978
:104A040040F66161CD48FCF71EF8D7F8F430DB6856
:104A1400002B0AD0D7F8F430DB68B3F5005F04D07C
:104A240040F66261C548FCF70EF8D7F8F4301B690C
:104A3400002B10D0D7F8F4301B69B3F5806F0AD07F
:104A4400D7F8F4301B69B3F5C06F04D040F6636146
:104A5400BA48FBF7F8FFD7F8F4305A694FF6F37306
:104A64001340002B04D1D7F8F4305B69002B04D138
:104A740040F66461B148FBF7E6FFD7F8F4301B68F1
:104A84001B6923F44050D7F8F430D968D7F8F430D0
:104A94001A6840EA01031361D7F8F4309A68D7F82A
:104AA400F4301B691A43D7F8F4305B691A43D7F81A
:104AB400F430DB691343C7F8F830D7F8F4301B68D7
:104AC400DB6823F4164121F00C01D7F8F4301A689E
:104AD400D7F8F8300B43D360D7F8F4301B685B6920
:104AE40023F44070D7F8F4309969D7F8F4301A6891
:104AF40040EA01035361D7F8F4301A68904B9A42A4
:104B040005D0D7F8F4301A688E4B9A4204D1FDF7D9
:104B140067F9C7F8FC0003E0FDF74EF9C7F8FC009D
:104B2400D7F8F430DB69B3F5004F40F00F81D7F8C4
:104B3400FC300022C7F8E830C7F8EC20D7E93A4542
:104B440022462B469118B9655B41FB65D7E91623CC
:104B5400214612EB0108294643EB01094FF00002FC
:104B64004FF000034FEAC90343EA58734FEAC802FF
:104B740090469946234618EB0303C7F8E0302B46CA
:104B840049EB0303C7F8E430D7F8F4305B6800223C
:104B9400C7F8D830C7F8DC20D7E936120B46DB1843
:104BA4003B65134642EB03037B65D7E91423D7E93E
:104BB4003801FBF725FB02460B46634BA3FB02239C
:104BC4005B091C01D7F8FC300022C7F8D030C7F8C5
:104BD400D420D7E9348942464B469118B9645B41E5
:104BE400FB64D7E91223414612EB010A494643EB21
:104BF400010B4FF000024FF000034FEACB0343EAEE
:104C04005A734FEACA0292469B4643461AEB030381
:104C1400C7F8C8304B464BEB0303C7F8CC30D7F882
:104C2400F4305B680022C7F8C030C7F8C420D7E965
:104C340030120B46DB183B64134642EB03037B64E0
:104C4400D7E91023D7E93201FBF7DAFA02460B461B
:104C540011463D4BA3FB01235B09642202FB03F3D2
:104C6400CB1ADB0003F13202374BA3FB02235B09AF
:104C74005B0003F4F8731C44D7F8FC300022C7F837
:104C8400B830C7F8BC20D7E92E8942464B46911864
:104C9400B9635B41FB63D7E90E234146511839637D
:104CA40049464B417B634FF000024FF00003D7E9C4
:104CB4000CAB5946CB00514643EA51735146CA00E6
:104CC40010461946034642469B18C7F8B0304B4677
:104CD4000A4642EB0303C7F8B430D7F8F4305B68F4
:104CE4000022C7F8A830C7F8AC20D7E92A120B462F
:104CF400DB18BB62134642EB0303FB62D7E90A23CA
:104D0400D7E92C01FBF77CFA02460B460E4BA3FBBA
:104D140002135B09642101FB03F3D31ADB00323372
:104D2400094AA2FB03235B0903F00702D7F8F43016
:104D34001B6822449A6008E1A037A00030510008A3
:104D440000100140001401401F85EB51D7F8FC30DE
:104D54000022C7F8A030C7F8A420D7E92889424622
:104D64004B46911839625B417B62D7E9082341467F
:104D74005418494643EB01054FF000024FF000037D
:104D8400EB0043EA5473E20014461D464346E3181D
:104D9400C7F898304B4645EB0303C7F89C30D7F867
:104DA400F4305B680022C7F89030C7F894204FF0C5
:104DB40000024FF00003D7E9244529468B00214621
:104DC40043EA917321468A00D7E92601FBF718FAD2
:104DD40002460B46604BA3FB02235B091C01D7F878
:104DE400FC300022C7F88830C7F88C20D7E9228924
:104DF40042464B469118B9615B41FB61D7E90623F2
:104E040041465118396149464B417B614FF00002DC
:104E14004FF00003D7E904AB5946CB00514643EAAF
:104E240051735146CA0010461946034642469B1820
:104E3400C7F880304B460A4642EB0303C7F8843078
:104E4400D7F8F4305B680022BB67FA674FF00002C2
:104E54004FF00003D7E91E8949468B00414643EAD7
:104E6400917341468A00D7E92001FBF7C9F902464C
:104E74000B46394BA3FB02135B09642101FB03F3CB
:104E8400D31A1B013233344AA2FB03235B0903F018
:104E9400F0031C44D7F8FC3000223B677A67D7E95B
:104EA4001C8942464B469118B9605B41FB60D7E9C7
:104EB400022341465118396049464B417B604FF00B
:104EC40000024FF00003D7E900AB5946CB0051462E
:104ED40043EA51735146CA001046194603464246F6
:104EE4009B18BB664B460A4642EB0303FB66D7F8A6
:104EF400F4305B6800223B667A664FF000024FF0A4
:104F04000003D7E9188949468B00414643EA917367
:104F140041468A00D7E91A01FBF772F902460B46AB
:104F24000D4BA3FB02135B09642101FB03F3D31AAA
:104F34001B013233084AA2FB03235B0903F00F026F
:104F4400D7F8F4301B6822449A6000BF07F58077D5
:104F5400BD46BDE8B08F00BF1F85EB5170B50D4D48
:104F64000D4C641BA4100026A64209D10B4D0C4C19
:104F740000F020F8641BA4100026A64205D170BDE1
:104F840055F8043B98470136EEE755F8043B98473B
:104F94000136F2E78C5100088C5100088C5100084E
:104FA4009051000802440346934200D1704703F82D
:104FB400011BF9E7F8B500BFF8BC08BC9E46704772
:0C4FC400F8B500BFF8BC08BC9E46704762
:104FD0002E2E2F447269766572732F53544D3332DF
:104FE000463478785F48414C5F4472697665722F29
:104FF0005372632F73746D3332663478785F6861EF
:105000006C5F636F727465782E6300002E2E2F44E0
:105010007269766572732F53544D33324634787803
:105020005F48414C5F4472697665722F5372632FFB
:1050300073746D3332663478785F68616C5F677063
:10504000696F2E63000000002E2E2F447269766572
:1050500072732F53544D3332463478785F48414C45
:105060005F4472697665722F5372632F73746D3368
:1050700032663478785F68616C5F7263632E6300B8
:105080002E2E2F447269766572732F53544D33322E
:10509000463478785F48414C5F4472697665722F78
:1050A0005372632F73746D3332663478785F68613E
:1050B0006C5F7263635F65782E6300002E2E2F4451
:1050C0007269766572732F53544D33324634787853
:1050D0005F48414C5F4472697665722F5372632F4B
:1050E00073746D3332663478785F68616C5F7469AD
:1050F0006D2E63002E2E2F447269766572732F53C6
:10510000544D3332463478785F48414C5F4472697D
:105110007665722F5372632F73746D3332663478F1
:10512000785F68616C5F74696D5F65782E630000FD
:105130002E2E2F447269766572732F53544D33327D
:10514000463478785F48414C5F4472697665722FC7
:105150005372632F73746D3332663478785F68618D
:105160006C5F756172742E63000000000000000027
:105170000000000001020304060708090000000007
:045180000102030421
:08518400B0B0FF7F0100000044
:04518C00E90100082D
:04519000C50100084D
:0C5194000024F4001000000001000000E6
:0400000508000D5989
:00000001FF
